{
  "contractName": "Crud",
  "abi": [
    {
      "constant": true,
      "inputs": [],
      "name": "nextId",
      "outputs": [
        {
          "internalType": "uint256",
          "name": "",
          "type": "uint256"
        }
      ],
      "payable": false,
      "stateMutability": "view",
      "type": "function"
    },
    {
      "constant": true,
      "inputs": [
        {
          "internalType": "uint256",
          "name": "",
          "type": "uint256"
        }
      ],
      "name": "users",
      "outputs": [
        {
          "internalType": "uint256",
          "name": "id",
          "type": "uint256"
        },
        {
          "internalType": "string",
          "name": "name",
          "type": "string"
        }
      ],
      "payable": false,
      "stateMutability": "view",
      "type": "function"
    },
    {
      "constant": false,
      "inputs": [
        {
          "internalType": "string",
          "name": "name",
          "type": "string"
        }
      ],
      "name": "create",
      "outputs": [],
      "payable": false,
      "stateMutability": "nonpayable",
      "type": "function"
    },
    {
      "constant": true,
      "inputs": [
        {
          "internalType": "uint256",
          "name": "id",
          "type": "uint256"
        }
      ],
      "name": "read",
      "outputs": [
        {
          "internalType": "uint256",
          "name": "",
          "type": "uint256"
        },
        {
          "internalType": "string",
          "name": "",
          "type": "string"
        }
      ],
      "payable": false,
      "stateMutability": "view",
      "type": "function"
    },
    {
      "constant": false,
      "inputs": [
        {
          "internalType": "uint256",
          "name": "id",
          "type": "uint256"
        },
        {
          "internalType": "string",
          "name": "name",
          "type": "string"
        }
      ],
      "name": "update",
      "outputs": [],
      "payable": false,
      "stateMutability": "nonpayable",
      "type": "function"
    },
    {
      "constant": false,
      "inputs": [
        {
          "internalType": "uint256",
          "name": "id",
          "type": "uint256"
        }
      ],
      "name": "deletes",
      "outputs": [],
      "payable": false,
      "stateMutability": "nonpayable",
      "type": "function"
    }
  ],
  "bytecode": "0x608060405234801561001057600080fd5b5061085b806100206000396000f3fe608060405234801561001057600080fd5b50600436106100625760003560e01c80633374fbb414610067578063365b98b21461009557806361b8ce8c14610143578063b6a46b3b14610161578063ed2e5a971461021c578063f745630f146102ca575b600080fd5b6100936004803603602081101561007d57600080fd5b810190808035906020019092919050505061038f565b005b6100c1600480360360208110156100ab57600080fd5b81019080803590602001909291905050506103d6565b6040518083815260200180602001828103825283818151815260200191508051906020019080838360005b838110156101075780820151818401526020810190506100ec565b50505050905090810190601f1680156101345780820380516001836020036101000a031916815260200191505b50935050505060405180910390f35b61014b61049f565b6040518082815260200191505060405180910390f35b61021a6004803603602081101561017757600080fd5b810190808035906020019064010000000081111561019457600080fd5b8201836020820111156101a657600080fd5b803590602001918460018302840111640100000000831117156101c857600080fd5b91908080601f016020809104026020016040519081016040528093929190818152602001838380828437600081840152601f19601f8201169050808301925050505050505091929192905050506104a5565b005b6102486004803603602081101561023257600080fd5b8101908080359060200190929190505050610528565b6040518083815260200180602001828103825283818151815260200191508051906020019080838360005b8381101561028e578082015181840152602081019050610273565b50505050905090810190601f1680156102bb5780820380516001836020036101000a031916815260200191505b50935050505060405180910390f35b61038d600480360360408110156102e057600080fd5b81019080803590602001909291908035906020019064010000000081111561030757600080fd5b82018360208201111561031957600080fd5b8035906020019184600183028401116401000000008311171561033b57600080fd5b91908080601f016020809104026020016040519081016040528093929190818152602001838380828437600081840152601f19601f82011690508083019250505050505050919291929050505061061c565b005b600061039a82610661565b9050600081815481106103a957fe5b90600052602060002090600202016000808201600090556001820160006103d091906106b9565b50505050565b600081815481106103e357fe5b9060005260206000209060020201600091509050806000015490806001018054600181600116156101000203166002900480601f0160208091040260200160405190810160405280929190818152602001828054600181600116156101000203166002900480156104955780601f1061046a57610100808354040283529160200191610495565b820191906000526020600020905b81548152906001019060200180831161047857829003601f168201915b5050505050905082565b60015481565b600060405180604001604052806001548152602001838152509080600181540180825580915050906001820390600052602060002090600202016000909192909190915060008201518160000155602082015181600101908051906020019061050f929190610701565b5050505060016000815480929190600101919050555050565b60006060600061053784610661565b90506000818154811061054657fe5b9060005260206000209060020201600001546000828154811061056557fe5b9060005260206000209060020201600101808054600181600116156101000203166002900480601f01602080910402602001604051908101604052809291908181526020018280546001816001161561010002031660029004801561060b5780601f106105e05761010080835404028352916020019161060b565b820191906000526020600020905b8154815290600101906020018083116105ee57829003601f168201915b505050505090509250925050915091565b600061062783610661565b9050816000828154811061063757fe5b9060005260206000209060020201600101908051906020019061065b929190610781565b50505050565b600080600090505b6000805490508110156106b257826000828154811061068457fe5b90600052602060002090600202016000015414156106a557809150506106b4565b8080600101915050610669565b505b919050565b50805460018160011615610100020316600290046000825580601f106106df57506106fe565b601f0160209004906000526020600020908101906106fd9190610801565b5b50565b828054600181600116156101000203166002900490600052602060002090601f016020900481019282601f1061074257805160ff1916838001178555610770565b82800160010185558215610770579182015b8281111561076f578251825591602001919060010190610754565b5b50905061077d9190610801565b5090565b828054600181600116156101000203166002900490600052602060002090601f016020900481019282601f106107c257805160ff19168380011785556107f0565b828001600101855582156107f0579182015b828111156107ef5782518255916020019190600101906107d4565b5b5090506107fd9190610801565b5090565b61082391905b8082111561081f576000816000905550600101610807565b5090565b9056fea265627a7a72315820d54b18b9d07476fbc9815dffd94c05b63a08822831d21add645e0d8787ce266164736f6c63430005100032",
  "source": "pragma solidity ^0.5.0;\n\ncontract Crud {\n\n    struct User { \n        uint id;\n        string name;\n    }\n\n    User[] public users;\n    uint public nextId;\n\n    function create ( string memory name )public {\n        users.push(User (nextId, name));\n        nextId ++ ;\n    }\n\n    function read (uint id) view public returns (uint,string memory){\n        uint i = find (id);\n        //to check if this is correct use\n            return(users[i].id ,users[i].name);\n            }\n        \n\nfunction update( uint id,string memory name) public {\n     uint i = find (id);\n        //to check if this is correct user\n        users[i].name = name; \n}\n\nfunction deletes (uint id) public {\n    uint i = find(id);\n    delete users [i];\n}\n\n  function find(uint id) view internal returns(uint) {\n    for(uint i = 0; i < users.length; i++) {\n      if(users[i].id == id) {\n        return i;\n      }\n    }\n\n    }\n}\n\n\n\n",
  "sourcePath": "C:\\Users\\Satav\\Desktop\\Dapp30\\Crud\\contracts\\Crud.sol",
  "compiler": {
    "name": "solc",
    "version": "0.5.16+commit.9c3226ce.Emscripten.clang"
  },
  "schemaVersion": "3.4.10",
  "updatedAt": "2022-11-10T11:18:51.402Z",
  "networkType": "ethereum",
  "devdoc": {
    "methods": {}
  },
  "userdoc": {
    "methods": {}
  }
}